:020000040800F2
:10000000000008245D3F0008E9340008EB340008D4
:10001000ED340008EF340008F1340008000000005F
:1000200000000000000000000000000091A800088F
:10003000F33400080000000031A90008D3A500082F
:10004000AD3F0008AD3F0008AD3F0008AD3F0008E0
:10005000AD3F0008AD3F0008AD3F0008AD3F0008D0
:10006000AD3F0008AD3F0008AD3F0008F534000883
:10007000053500081535000825350008AD3F000896
:10008000AD3F0008AD3F0008AD3F0008AD3F0008A0
:10009000AD3F0008AD3F0008AD3F0008AD3F000890
:1000A000AD3F0008AD3F0008AD3F0008AD3F000880
:1000B000AD3F0008AD3F0008AD3F0008AD3F000870
:1000C000AD3F0008AD3F0008AD3F000835350008E2
:1000D000AD3F0008AD3F0008453500085535000824
:1000E000AD3F0008AD3F000800000000AD3F000834
:1000F000AD3F0008AD3F0008AD3F0008AD3F000830
:10010000AD3F0008AD3F0008AD3F0008AD3F00081F
:100110006535000875350008AD3F0008AD3F0008A3
:10012000AD3F0008AD3F0008AD3F0008AD3F0008FF
:10013000AD3F0008AD3F0008AD3F0008AD3F0008EF
:1001400000000000000000000000000000000000AF
:10015000AD3F0008AD3F0008AD3F0008AD3F0008CF
:10016000AD3F0008AD3F0008AD3F0008AD3F0008BF
:10017000AD3F0008AD3F0008AD3F0008AD3F0008AF
:10018000AD3F0008AD3F0008AD3F000885350008D1
:10019000AD3F0008AD3F0008AD3F0008AD3F00088F
:1001A000AD3F0008AD3F0008AD3F0008AD3F00087F
:1001B000AD3F0008AD3F0008AD3F0008AD3F00086F
:1001C000AD3F0008AD3F0008AD3F0008AD3F00085F
:1001D000AD3F0008AD3F0008AD3F0008AD3F00084F
:1001E000AD3F0008AD3F0008AD3F0008AD3F00083F
:1001F000AD3F0008AD3F0008AD3F0008AD3F00082F
:10020000AD3F0008AD3F0008AD3F0008AD3F00081E
:10021000AD3F0008AD3F000821370008AD3F0008A2
:10022000AD3F0008AD3F0008AD3F000800000000F2
:10023000AD3F0008AD3F000800000000AD3F0008E2
:10024000AD3F0008AD3F0008AD3F0008AD3F0008DE
:10025000AD3F0008AD3F0008AD3F0008AD3F0008CE
:10026000AD3F0008AD3F0008AD3F0008AD3F0008BE
:10027000AD3F0008AD3F0008AD3F000800000000A2
:10028000AD3F0008AD3F0008AD3F00080000000092
:0802900000000000AD3F000872
:1002C00010B5054C237833B9044B13B10448AFF390
:1002D00000800123237010BD2009002400000000CD
:1002E00030CA000808B5034B1BB103490348AFF3FC
:1002F000008008BD000000002409002430CA000866
:1003000081F0004102E000BF83F0004330B54FEAC6
:1003100041044FEA430594EA050F08BF90EA020F33
:100320001FBF54EA000C55EA020C7FEA645C7FEAC6
:10033000655C00F0E2804FEA5454D4EB5555B8BFE9
:100340006D420CDD2C4480EA020281EA030382EA5A
:10035000000083EA010180EA020281EA0303362DEC
:1003600088BF30BD11F0004F4FEA01314FF4801CBF
:100370004CEA113102D0404261EB410113F0004FD1
:100380004FEA03334CEA133302D0524263EB430388
:1003900094EA050F00F0A780A4F10104D5F1200E26
:1003A0000DDB02FA0EFC22FA05F2801841F1000181
:1003B00003FA0EF2801843FA05F359410EE0A5F155
:1003C00020050EF1200E012A03FA0EFC28BF4CF086
:1003D000020C43FA05F3C01851EBE37101F000453C
:1003E00007D54FF0000EDCF1000C7EEB00006EEB49
:1003F0000101B1F5801F1BD3B1F5001F0CD34908D3
:100400005FEA30004FEA3C0C04F101044FEA445229
:1004100012F5800F80F09A80BCF1004F08BF5FEAB0
:10042000500C50F1000041EB045141EA050130BD90
:100430005FEA4C0C404141EB0101013C28BFB1F5A2
:10044000801FE9D291F0000F04BF01460020B1FAED
:1004500081F308BF2033A3F10B03B3F120020CDAC0
:100460000C3208DD02F1140CC2F10C0201FA0CF09E
:1004700021FA02F10CE002F11402D8BFC2F1200C03
:1004800001FA02F120FA0CFCDCBF41EA0C019040B9
:10049000E41AA2BF01EB0451294330BD6FEA040402
:1004A0001F3C1CDA0C340EDC04F11404C4F12002ED
:1004B00020FA04F001FA02F340EA030021FA04F3FF
:1004C00045EA030130BDC4F10C04C4F1200220FA56
:1004D00002F001FA04F340EA0300294630BD21FA94
:1004E00004F0294630BD94F0000F83F4801306BF5A
:1004F00081F480110134013D4EE77FEA645C18BF4E
:100500007FEA655C29D094EA050F08BF90EA020FE4
:1005100005D054EA000C04BF1946104630BD91EADC
:10052000030F1EBF0021002030BD5FEA545C05D1DF
:100530004000494128BF41F0004130BD14F580041E
:100540003CBF01F5801130BD01F0004545F0FE4192
:1005500041F470014FF0000030BD7FEA645C1ABFC7
:10056000194610467FEA655C1CBF0B46024650EAFE
:10057000013406BF52EA033591EA030F41F400212A
:1005800030BD00BF90F0000F04BF0021704730B5B0
:100590004FF4806404F132044FF000054FF0000185
:1005A00050E700BF90F0000F04BF0021704730B546
:1005B0004FF4806404F1320410F0004548BF40421B
:1005C0004FF000013EE700BF42004FEAE2014FEA70
:1005D00031014FEA02701FBF12F07F4393F07F4F4B
:1005E00081F06051704732F07F4208BF704793F04E
:1005F0007F4F04BF41F40021704730B54FF4607461
:1006000001F0004521F000411CE700BF50EA010263
:1006100008BF704730B54FF000050AE050EA01020C
:1006200008BF704730B511F0004502D5404261EB7C
:1006300041014FF4806404F132045FEA915C3FF4BD
:10064000D8AE4FF003025FEADC0C18BF03325FEA5A
:10065000DC0C18BF033202EBDC02C2F1200300FA0B
:1006600003FC20FA02F001FA03FE40EA0E0021FA30
:1006700002F11444BDE600BF70B54FF0FF0C4CF41E
:10068000E06C1CEA11541DBF1CEA135594EA0C0FD0
:1006900095EA0C0F00F0DEF82C4481EA030621EA0B
:1006A0004C5123EA4C5350EA013518BF52EA033546
:1006B00041F4801143F4801338D0A0FB02CE4FF0F8
:1006C0000005E1FB02E506F00042E0FB03E54FF028
:1006D0000006E1FB03569CF0000F18BF4EF0010E20
:1006E000A4F1FF04B6F5007F64F5407404D25FEA1C
:1006F0004E0E6D4146EB060642EAC62141EA5551CF
:100700004FEAC52040EA5E504FEACE2EB4F1FD0C10
:1007100088BFBCF5E06F1ED8BEF1004F08BF5FEA8E
:10072000500E50F1000041EB045170BD06F0004640
:1007300046EA010140EA020081EA0301B4EB5C04ED
:10074000C2BFD4EB0C0541EA045170BD41F48011E5
:100750004FF0000E013C00F3AB8014F1360FDEBF0A
:10076000002001F0004170BDC4F10004203C35DAE6
:100770000C341BDC04F11404C4F1200500FA05F369
:1007800020FA04F001FA05F240EA020001F000420A
:1007900021F0004110EBD37021FA04F642EB060180
:1007A0005EEA430E08BF20EAD37070BDC4F10C04AA
:1007B000C4F1200500FA04F320FA05F001FA04F26E
:1007C00040EA020001F0004110EBD37041F100015A
:1007D0005EEA430E08BF20EAD37070BDC4F1200565
:1007E00000FA05F24EEA020E20FA04F301FA05F2CD
:1007F00043EA020321FA04F001F0004121FA04F275
:1008000020EA020000EBD3705EEA430E08BF20EA44
:10081000D37070BD94F0000F0FD101F0004640007E
:1008200041EB010111F4801F08BF013CF7D041EA00
:10083000060195F0000F18BF704703F00046520004
:1008400043EB030313F4801F08BF013DF7D043EAD5
:100850000603704794EA0C0F0CEA135518BF95EA8B
:100860000C0F0CD050EA410618BF52EA4306D1D112
:1008700081EA030101F000414FF0000070BD50EA31
:10088000410606BF1046194652EA430619D094EABB
:100890000C0F02D150EA013613D195EA0C0F05D1A5
:1008A00052EA03361CBF104619460AD181EA0301F9
:1008B00001F0004141F0FE4141F470014FF00000B1
:1008C00070BD41F0FE4141F4780170BD70B54FF04C
:1008D000FF0C4CF4E06C1CEA11541DBF1CEA1355CC
:1008E00094EA0C0F95EA0C0F00F0A7F8A4EB0504AE
:1008F00081EA030E52EA03354FEA013100F08880A5
:100900004FEA03334FF0805545EA131343EA12636D
:100910004FEA022245EA111545EA10654FEA002622
:100920000EF000419D4208BF964244F1FD0404F5DB
:10093000407402D25B084FEA3202B61A65EB030537
:100940005B084FEA32024FF480104FF4002CB6EBF4
:10095000020E75EB030E22BFB61A754640EA0C0074
:100960005B084FEA3202B6EB020E75EB030E22BFB4
:10097000B61A754640EA5C005B084FEA3202B6EBF5
:10098000020E75EB030E22BFB61A754640EA9C00B4
:100990005B084FEA3202B6EB020E75EB030E22BF84
:1009A000B61A754640EADC0055EA060E18D04FEA42
:1009B000051545EA16754FEA06164FEAC30343EAE2
:1009C00052734FEAC2025FEA1C1CC0D111F4801FAF
:1009D0000BD141EA00014FF000004FF0004CB6E7A8
:1009E00011F4801F04BF01430020B4F1FD0C88BF47
:1009F000BCF5E06F3FF6AFAEB5EB030C04BFB6EB52
:100A0000020C5FEA500C50F1000041EB045170BD44
:100A10000EF0004E4EEA113114EB5C04C2BFD4EB71
:100A20000C0541EA045170BD41F480114FF0000EF5
:100A3000013C90E645EA060E8DE60CEA135594EA71
:100A40000C0F08BF95EA0C0F3FF43BAF94EA0C0F74
:100A50000AD150EA01347FF434AF95EA0C0F7FF4E9
:100A600025AF104619462CE795EA0C0F06D152EA3D
:100A700003353FF4FDAE1046194622E750EA410621
:100A800018BF52EA43067FF4C5AE50EA41047FF432
:100A90000DAF52EA43057FF4EBAE12E74FF0FF3C97
:100AA00006E000BF4FF0010C02E000BF4FF0010C68
:100AB0004DF804CD4FEA410C7FEA6C5C4FEA430CE1
:100AC00018BF7FEA6C5C1BD001B050EA410C0CBF30
:100AD00052EA430C91EA030F02BF90EA020F002092
:100AE000704710F1000F91EA030F58BF994208BFF9
:100AF00090422CBFD8176FEAE37040F001007047B6
:100B00004FEA410C7FEA6C5C02D150EA013C07D10C
:100B10004FEA430C7FEA6C5CD6D152EA033CD3D057
:100B20005DF8040B704700BF8446104662468C4651
:100B30001946634600E000BF01B5FFF7B7FF002884
:100B400048BF10F1000F01BD4DF808EDFFF7F4FFAD
:100B50000CBF012000205DF808FB00BF4DF808ED38
:100B6000FFF7EAFF34BF012000205DF808FB00BF5B
:100B70004DF808EDFFF7E0FF94BF012000205DF87D
:100B800008FB00BF4DF808EDFFF7CEFF94BF012032
:100B900000205DF808FB00BF4DF808EDFFF7C4FF2B
:100BA00034BF012000205DF808FB00BF4FEA41027E
:100BB00012F5001215D211D56FF47873B3EB6252AF
:100BC00012D94FEAC12343F0004343EA505311F0D6
:100BD000004F23FA02F018BF404270474FF0000068
:100BE000704750EA013005D111F0004008BF6FF0A6
:100BF000004070474FF00000704700BF53B94AB93A
:100C0000002908BF00281CBF4FF0FF314FF0FF3014
:100C100000F074B9ADF1080C6DE904CE00F006F8EF
:100C2000DDF804E0DDE9022304B070472DE9F04768
:100C3000089D04468E46002B4DD18A42944669D9C0
:100C4000B2FA82F252B101FA02F3C2F1200120FAA3
:100C500001F10CFA02FC41EA030E94404FEA1C48F1
:100C6000210CBEFBF8F61FFA8CF708FB16E341EAED
:100C7000034306FB07F199420AD91CEB030306F173
:100C8000FF3080F01F81994240F21C81023E634494
:100C90005B1AA4B2B3FBF8F008FB103344EA034438
:100CA00000FB07F7A7420AD91CEB040400F1FF334D
:100CB00080F00A81A74240F207816444023840EA8A
:100CC0000640E41B00261DB1D4400023C5E90043C3
:100CD0003146BDE8F0878B4209D9002D00F0EF8046
:100CE0000026C5E9000130463146BDE8F087B3FA79
:100CF00083F6002E4AD18B4202D3824200F2F98061
:100D0000841A61EB030301209E46002DE0D0C5E963
:100D1000004EDDE702B9FFDEB2FA82F2002A40F0AF
:100D20009280A1EB0C014FEA1C471FFA8CFE0126B2
:100D3000200CB1FBF7F307FB131140EA01410EFB56
:100D400003F0884208D91CEB010103F1FF3802D2FD
:100D5000884200F2CB804346091AA4B2B1FBF7F0F7
:100D600007FB101144EA01440EFB00FEA64508D91A
:100D70001CEB040400F1FF3102D2A64500F2BB8057
:100D80000846A4EB0E0440EA03409CE7C6F12007A6
:100D9000B34022FA07FC4CEA030C20FA07F401FAEC
:100DA00006F31C43F9404FEA1C4900FA06F3B1FB75
:100DB000F9F8200C1FFA8CFE09FB181140EA0141DA
:100DC00008FB0EF0884202FA06F20BD91CEB010177
:100DD00008F1FF3A80F08880884240F28580A8F1CF
:100DE00002086144091AA4B2B1FBF9F009FB101121
:100DF00044EA014100FB0EFE8E4508D91CEB0101BF
:100E000000F1FF346CD28E456AD90238614440EA61
:100E10000840A0FB0294A1EB0E01A142C846A646E1
:100E200056D353D05DB1B3EB080261EB0E0101FA6A
:100E300007F722FA06F3F1401F43C5E900710026C7
:100E40003146BDE8F087C2F12003D8400CFA02FC1D
:100E500021FA03F3914001434FEA1C471FFA8CFE2D
:100E6000B3FBF7F007FB10360B0C43EA064300FB1D
:100E70000EF69E4204FA02F408D91CEB030300F1BB
:100E8000FF382FD29E422DD9023863449B1B89B272
:100E9000B3FBF7F607FB163341EA034106FB0EF3FB
:100EA0008B4208D91CEB010106F1FF3816D28B42A8
:100EB00014D9023E6144C91A46EA004638E72E4674
:100EC000284605E70646E3E61846F8E64B45A9D26C
:100ED000B9EB020864EB0C0E0138A3E74646EAE7DB
:100EE000204694E74046D1E7D0467BE7023B614489
:100EF00032E7304609E76444023842E7704700BFF2
:100F0000844641EA000313F003036DD1403A41D314
:100F100051F8043B40F8043B51F8043B40F8043BD3
:100F200051F8043B40F8043B51F8043B40F8043BC3
:100F300051F8043B40F8043B51F8043B40F8043BB3
:100F400051F8043B40F8043B51F8043B40F8043BA3
:100F500051F8043B40F8043B51F8043B40F8043B93
:100F600051F8043B40F8043B51F8043B40F8043B83
:100F700051F8043B40F8043B51F8043B40F8043B73
:100F800051F8043B40F8043B51F8043B40F8043B63
:100F9000403ABDD2303211D351F8043B40F8043B03
:100FA00051F8043B40F8043B51F8043B40F8043B43
:100FB00051F8043B40F8043B103AEDD20C3205D313
:100FC00051F8043B40F8043B043AF9D2043208D00B
:100FD000D2071CBF11F8013B00F8013B01D30B887D
:100FE00003806046704700BF082A13D38B078DD05B
:100FF00010F003038AD0C3F10403D21ADB071CBF2D
:1010000011F8013B00F8013B80D331F8023B20F896
:10101000023B7BE7043AD9D3013A11F8013B00F8CF
:10102000013BF9D20B7803704B7843708B78837057
:101030006046704700000000000000000000000053
:10104000A2EB0300704700BF02780B78012A28BF8B
:101050009A42F5D16DE9044540EA0104CDE9026701
:101060006FF0000C4FEA447212B380EA010414F0EE
:10107000070F6AD100F0070420F0070004F0030511
:1010800021F007014FEAC505F0E8042314F0040F2E
:10109000F1E804670CFA05F462EA040266EA040661
:1010A0000AD063EA0403624667EA0407664603E07F
:1010B000F0E80423F1E8046782FA4CF582EA0604BA
:1010C000A4FA8CF46CBB83FA4CF583EA0705A5FA05
:1010D0008CF595B950E9022351E9026782FA4CF583
:1010E00082EA0604A4FA8CF483FA4CF583EA070535
:1010F000A5FA8CF52543DBD09CB92DBAB5FA85F459
:1011000024F0070427FA04F1DDE9026723FA04F367
:1011100003F0FF0001F0FF01FDE80445A0EB010032
:10112000704724BAB4FA84F424F0070426FA04F1D0
:10113000DDE9026722FA04F202F0FF0001F0FF018C
:10114000FDE80445A0EB0100704714F0030F3CD10B
:1011500010F0030428D150F8082B51F8083B82FA0C
:101160004CF582EA0305A5FA8CF55DB950F8042C1C
:1011700051F8043C82FA4CF582EA0305A5FA8CF595
:10118000002DE8D02DBAB5FA85F424F0070423FA2F
:1011900004F122FA04F202F0FF0001F0FF01FDE881
:1011A0000445A0EB010070474FEAC40420F003009F
:1011B00050F8082B21F0030151F8083B0CFA04F415
:1011C00062EA040263EA0403C9E710F003041AD0D8
:1011D000A1EB040120F00300E40750F8042B06D033
:1011E0000FD28B785FFAA2F4E41A06D12BB1CB7838
:1011F0005FFAB2F4E41A00D11BB920465DF8104B37
:10120000704701F1040150F8042BCC0721F00301D1
:1012100051F8043B48D824D222F07F4482FA4CF59E
:1012200094EA1325A5FA8CF50AD165B951F8043B67
:1012300084EA0204B4EB036F0ED150F8042BEBE701
:101240004FEA132355E035F07F454DD10878FDE88E
:101250000445C0F1000070474FEA126203F0FF033B
:1012600047E002EA1C4482FA4CF594EA1345A5FAD9
:101270008CF50AD165B951F8043B84EA0204B4EB59
:10128000034F0CD150F8042BEBE74FEA134330E047
:1012900015EA1C4528D10B884FEA124229E04FEA93
:1012A000124203EA1C4324E002F0FF0482FA4CF5E8
:1012B00094EA1365A5FA8CF50AD165B951F8043B97
:1012C00084EA0204B4EB032F09D150F8042BEBE7B6
:1012D0004FEA13630DE015F0FF0F05D10B684FEADD
:1012E000122223F07F4304E04FF00000FDE80445A4
:1012F000704712BA1BBA82FA4CF482EA0304A4FAC9
:101300008CF5B5FA85F402FA04F203FA04F34FEA15
:101310001260FDE80445A0EB136070470000000078
:1013200000000000000000000000000000000000BD
:1013300000000000000000000000000000000000AD
:1013400090F800F06DE9024520F007016FF0000C05
:1013500010F0070491F820F040F049804FF00004AD
:101360006FF00700D1E9002391F840F000F1080088
:1013700082FA4CF2A4FA8CF283FA4CF3A2FA8CF3C0
:101380004BBBD1E9022382FA4CF200F10800A4FA27
:101390008CF283FA4CF3A2FA8CF3E3B9D1E904237B
:1013A00082FA4CF200F10800A4FA8CF283FA4CF3B2
:1013B000A2FA8CF37BB9D1E9062301F1200182FA6C
:1013C0004CF200F10800A4FA8CF283FA4CF3A2FA72
:1013D0008CF3002BC6D0002A04BF04301A4612BA80
:1013E000B2FA82F2FDE8024500EBD2007047D1E983
:1013F000002304F00305C4F100004FEAC50514F012
:10140000040F91F840F00CFA05F562EA05021CBFE2
:1014100063EA050362464FF00004A9E708B50146F8
:10142000012000F091F808BD0260002343710371B0
:101430008171704700B54279531C90F806C093FB48
:10144000FCFE0CFB1E3390F804C063450CD003680F
:10145000995443790133827993FBF2F102FB113302
:10146000437101205DF804FB03689954427901320D
:10147000817992FBF1F301FB13224271037901336D
:1014800093FBF1F201FB12330371EAE7026803797F
:101490001944837991FBF3F003FB1011505C704702
:1014A00000B583B08DF80710012804D002280BD0B6
:1014B00003B05DF804FBFF2301220DF1070107488B
:1014C000006908F0C4FDF3E7FF2301220DF10701D5
:1014D0000348006908F0BBFDEAE700BF08000024EC
:1014E0005800002408B5012802D0022807D008BD02
:1014F000FF2301220548006908F016FEF7E7FF23E5
:1015000001220348006908F00FFEF0E708000024FC
:101510005800002484464FF6FF700EE04008013367
:10152000DBB2072B07D810F0010FF7D04AF2010207
:1015300082EA5000F3E7013989B221B11CF8013B7E
:1015400058400023EDE7704738B50546012812D012
:10155000022818D00B16154CE3710B1423720B12D2
:101560006372A1720B212046FFF7D4FFE072000ADC
:101570002073002416E00E4B1B691A68136823F0D1
:1015800004031360E6E70B4B1B691A68136823F02A
:1015900004031360DEE7054B195D2846FFF780FF63
:1015A0000134E4B20C2CF6D938BD00BFB8000024D9
:1015B000080000245800002438B50546012812D040
:1015C000022818D00B16154CE3710B1423720B1262
:1015D0006372A1720B212046FFF79CFFE072000AA4
:1015E0002073002416E00E4B1B691A68136823F061
:1015F00004031360E6E70B4B1B691A68136823F0BA
:1016000004031360DEE7054B195D2846FFF748FF2A
:101610000134E4B20C2CF6D938BD00BFA800002478
:1016200008000024580000242DE9F04184B005464C
:101630000C461646012808D002280ED00027029733
:10164000ADF80C708DF80E7016E0404B1B691A68EF
:10165000136843F004031360F0E73D4B1B691A68FD
:10166000136843F004031360E8E73A4BD95D28465A
:10167000FFF716FF0137FFB2072FF6D912E0394600
:101680002046FFF703FF07F110036B4403F8080C33
:101690000137FFB2062FF2D9072102A8FFF73AFF60
:1016A000404534D00DF107012846FFF71BFF9DF898
:1016B00007102046FFF7BEFE63790133A17993FB43
:1016C000F1F201FB123321798B42EBD1002120464C
:1016D000FFF7DCFE0128E5D101212046FFF7D6FE09
:1016E0000428DFD102212046FFF7D0FE0428D9D1FB
:1016F00007212046FFF7CAFE07B208212046FFF760
:10170000C5FE47EA00271FFA87F80027C2E7032132
:101710002046FFF7BBFE050604212046FFF7B6FE74
:1017200045EA004505212046FFF7B0FE45EA0025C1
:1017300006212046FFF7AAFE0543356000232371EA
:101740006371012004B0BDE8F08100BF08000024EF
:101750005800002400000024012806D0022808D0E8
:1017600003280AD004280CD07047084B01221A80A5
:101770007047064B02221A807047044B03221A80DE
:101780007047024B04221A80EEE700BFE0090024F4
:1017900038B53B4C63782370E378A3706379237189
:1017A000E379A371374D4FF48071284604F08AFA2B
:1017B00060704FF40071284604F084FAE0704FF432
:1017C0008061284604F07EFA60714FF4006128467B
:1017D00004F078FAE07163781BB923780BB1012229
:1017E0002272274BDB782BB9254B9B7813B1244B06
:1017F00001225A72224B5B792BB9214B1B7913B111
:101800001F4B01229A7228B91D4B9B7913B11C4BB7
:101810000122DA721A4B1B7A012B0CD0184B5B7A1F
:10182000012B14D0164B9B7A012B1CD0144BDB7A66
:10183000012B1FD038BD124B00221A72124B9A6C2A
:101840001249114499640220FFF7B6FEF2E70C4BEF
:1018500000225A720C4B9A6C0D4911449964022073
:10186000FFF7AAFEE6E7064B00229A72064B01221A
:10187000DA64DFE70023024AD372034AD364D9E76C
:10188000E8090024000C025890090024905F010030
:1018900080C7FEFF0023042B0BDC1946054A52F8D3
:1018A000232012B101331BB2F5E7024B43F82100AC
:1018B00070477047000A002400B583B08DF8071008
:1018C000436F01210DF10700984703B05DF804FB59
:1018D00070B50546466FE6B108460A46002402E0A8
:1018E00001320134A4B21378002B18BF0D2B01D0A4
:1018F0000A2BF5D1242C09D92421B0476B6F032181
:1019000006489847242C06D9242070BD2146B047AC
:10191000F8E70020F9E72720F7E700BF68CA0008CA
:101920000246002002E01354013080B20B5C002B11
:10193000F9D1135470478446002318461CF803203D
:101940007AB110B4CC5C4CB1A24207D1013080B264
:1019500001339BB21CF80320002AF3D15DF8044B3D
:1019600070477047437803F00F03012B05D9072B0D
:1019700005D9082B05D8C0687047C0687047C06893
:101980007047C068704730B5002306E01A1D00EBB1
:1019900082020021516001331BB2072BF6DD0021CA
:1019A000C1860B4601250DE002699E46D41812F847
:1019B00003C0BCF1220F14D0B5B924785C2C22D01E
:1019C00001339BB282899A4224D90029ECD104695F
:1019D000E25C202A18BF002AE6D10022E254012549
:1019E000EEE781F00101E7E7C58E072D09D805F183
:1019F000010CA0F836C0043500EB85056C600025AD
:101A0000DBE70025D9E772445278002AD8D00133A9
:101A10009BB2D5E730BD08B5C3898289934200D314
:101A200008BD0269591CC181D15CFFF745FFF7E78A
:101A3000C38903B9704710B504460821FFF73CFF7E
:101A4000E389013BE38110BD10B504460023A0F8F3
:101A50006030B0F85C305BB1B0F85E3053B3013B3E
:101A60000E3304EB830321695868FFF7EDFA00B3E6
:101A7000B4F85E300E3304EB830321695868FFF736
:101A80004FFF20B1B4F85E300133A4F85E30B4F8F3
:101A90005C3001339BB2A4F85C30082B02D90823D8
:101AA000A4F85C30B4F85E30072B02D90023A4F808
:101AB0005E3010BD0723D3E770B5054600240AE069
:101AC00000211170221D05EB820251680131516025
:101AD0000CE00134A4B2EB8EA34216D92346221D9A
:101AE00005EB8202526811782229E9D0043305EB14
:101AF00083035E683046FFF723FC83B2013BF25C50
:101B0000222AE6D10022F254E3E770BD002301E06F
:101B100001331BB2042B0ADC064A52F823000028CA
:101B2000F6D090F86C2012F0020FF1D000E0002007
:101B3000704700BF000A002410B5446F6CB18C469A
:101B40000B46002101E0013189B213F8012B002A74
:101B5000F9D16046A04780B210BD0020FCE700002C
:101B600010B5044690F86C3013F0010F19D091B9FC
:101B7000236859682046FFF7DFFF0C492046FFF72E
:101B8000DBFFA16859B12046FFF7D6FF0849204680
:101B9000FFF7D2FF10BD0749FFF7CEFFE8E7064980
:101BA000F1E70649FFF7C8FFF4E700BF70CA000875
:101BB00074CA00088CCC00086CCA000878CA0008F7
:101BC00010B50446036899680069FFF73DFA68B9E3
:101BD00094F86C3043F0010384F86C3006492046D9
:101BE000FFF7AAFF0023A381E38110BD034920462C
:101BF000FFF7A2FFF6E700BF94CA0008F0CB000889
:101C000008B5FFF783FF10B10149FFF795FF08BD45
:101C100004CC00080B784BB14A7802F00F02082A76
:101C200004D0026882B11278134210D090F86C3060
:101C300013F0010F0ED14B7813F0100F01D00020DC
:101C400070474FF0FF3070474FF0FF3070474FF054
:101C5000FF3070470020704700230B72082304E018
:101C60003032013BDBB2CA54000928B100F00F0248
:101C7000092AF5D95732F4E7C3F1080040B270479A
:101C8000002304E00E4A3021D1540133DBB2082B8B
:101C9000F8D9437803F00F03012B05D9072B05D999
:101CA000082B05D840687047406870474068704707
:101CB00010B5034C21464068FFF7CEFF204610BD0B
:101CC000F409002410B4041E04DB22460023CB7266
:101CD0000B2011E06242F9E7114B83FB023CD31762
:101CE000C3EBAC039C4603EB8303A2EB4303013835
:101CF000C0B230330B546246002AEDD1002C0ADB0F
:101D00001CB90138C0B230230B54C0F10B0040B2F3
:101D10005DF8044B70470138C0B22D230B54EFE738
:101D20006766666670B584B004460E46194B01AD11
:101D300093E8070085E8070017492046FFF7FCFEF7
:101D400029463046FFF7BEFFC0F10B01294420466B
:101D5000FFF7F2FE11492046FFF7EEFE002308E0F0
:101D600003F110026A444FF0300C02F80CCC01333E
:101D70001BB20A2BF4DD01A93046FFF76DFF01A964
:101D80002046FFF7D9FE06492046FFF7D5FE04B0EE
:101D900070BD00BF24CC000810CC00081CCC00088B
:101DA0008CCC000870B505460E460846FFF768FF64
:101DB00001462846FFF7C0FEC0F1160424B2002CED
:101DC00017DD20212846FFF777FD013C24B2002CC7
:101DD000F7D1737803F00F03012B0CD9072B14D91B
:101DE000082B17D9092B1AD81F492846FFF7A4FE3C
:101DF00005E00424E5E71D492846FFF79DFE1C4940
:101E00002846FFF799FE072414E01A492846FFF7F1
:101E100093FEF4E718492846FFF78EFEEFE71749CF
:101E20002846FFF789FEEAE72D212846FFF744FD03
:101E3000013C64B2002C06DB3378234113F0010F20
:101E4000F2D07821F1E70A492846FFF775FE3046BF
:101E5000FFF788FD01462846FFF73AFD0849284666
:101E6000FFF76AFE70BD00BF48CC000830CC000808
:101E700058CC000838CC000840CC000850CC0008F2
:101E80008CCC0008F8B50646476E0F49FFF754FEA4
:101E9000002401E0013424B2B6F868309C4211DA23
:101EA00007EB04156B7803F00F03012BF2D82946DA
:101EB0003046FFF7AFFE0028ECD129463046FFF749
:101EC00071FFE7E7F8BD00BF5CCC000808B5FFF77D
:101ED0001DFE08B1FFF7D6FF08BD0000F8B50646A5
:101EE000476E1049FFF728FE002401E0013424B2B8
:101EF000B6F868309C4214DA07EB04156B7803F0EF
:101F00000F030E3303F00F03052BEFD8294630469D
:101F1000FFF780FE0028E9D129463046FFF742FF4F
:101F2000E4E7F8BD70CC000808B5FFF7EFFD08B195
:101F3000FFF7D4FF08BD0000F8B50646476E0F490D
:101F4000FFF7FAFD002401E0013424B2B6F868304E
:101F50009C4211DA07EB04156B7803F00F03082B92
:101F6000F2D129463046FFF755FE0028ECD129462C
:101F70003046FFF717FFE7E7F8BD00BF80CC000849
:101F800008B5FFF7C3FD08B1FFF7D6FF08BD000095
:101F9000F8B50646476E0F49FFF7CEFD002401E075
:101FA000013424B2B6F868309C4211DA07EB04150C
:101FB0006B7803F00F03092BF2D129463046FFF767
:101FC00029FE0028ECD129463046FFF7EBFEE7E773
:101FD000F8BD00BF90CC000808B5FFF797FD08B129
:101FE000FFF7D6FF08BD08B5FFF74CFF08BD00009E
:101FF00038B5054604E005492846FFF79DFD214612
:102000004B1EDCB20029F6D138BD00BFA0CC0008C1
:1020100038B505468489C389E41A24B205E0202135
:102020002846FFF749FC013C24B2002CF7DC297B51
:102030002846FFF7DDFF38BD10B5044600291ADD3C
:10204000B0F96020531EA0F86030B0F85E30B0F8F0
:102050005C108B4238BF0B4659428A4201DCA4F81F
:1020600060102046FFF7D4FFB4F960208AB900233E
:10207000A381E38110BD0029FCDAB0F9603001339F
:102080001BB2A0F86030002BEBDD0023A0F860301D
:10209000F0E7B4F85E30083313445A4203F0070304
:1020A00002F0070258BF53420E3304EB8303596812
:1020B0002069FFF735FCA0810028DBD0E081216991
:1020C0002046FFF739FDD5E708B50121FFF7B4FF3A
:1020D00008BD08B54FF0FF31FFF7AEFF08BD0000A7
:1020E00070B504468389828E013A934207DAC28929
:1020F000934210D093424ED99B1A1BB223E026493B
:10210000FFF71AFD01212046FFF72AFD216920462D
:10211000FFF712FD3FE00269581CA081D1542269EB
:10212000A3890020D054E3890133E3812046FFF7DF
:10213000C3FB30E02069E2891A44851815F8015C78
:102140008554013B1BB2002BF4DC2269E389581C47
:10215000E081D1542269A38901339BB2A38100217C
:10216000D154E689013E36B206E02369995D2046E6
:10217000FFF7A2FB013636B2A589AE42F5DBE38953
:10218000ED1A2DB205E008212046FFF795FB013D31
:102190002DB2002DF7DC70BDA4CC000838B5044684
:1021A000B1F1FF3F14BF00230123C2890AB90129FD
:1021B00055D0A089824203D0824205D01BB219E0DB
:1021C000B1F1FF3FF8D14AE00129F7D1013AE281AC
:1021D000431E9BB2A38122690021D15401212046D4
:1021E000FFF706FF3BE020691A44551E825C42550A
:1021F00001331BB2A089E289851AAB42F3DB0138B7
:10220000A081B1F1FF3F06D12269A3890021D154F9
:10221000B4F90E500DE0013AE28108212046FFF7A3
:102220004BFBF1E72369595D2046FFF745FB01357C
:102230002DB2A3899D42F5DB20212046FFF73CFB10
:10224000A589E389ED1AADB201352DB205E008216B
:102250002046FFF731FB013D2DB2002DF7DC38BDE4
:1022600008B50121FFF79AFF08BD08B54FF0FF310F
:10227000FFF794FF08BD2DE9F04780468A461746D0
:102280009946B0F86860436ED31AC3F30F13F31A7C
:102290009EB2002406E04A4650460AF0A5F900B373
:1022A0000134A4B2B4421BD207EB041595F801C067
:1022B0000CF00F0CBCF1090FF2D029464046FFF795
:1022C000A9FC0028ECD12846FFF7DAFC0146B9F159
:1022D000000FE0D15046FEF7B7FE0028E0D100E045
:1022E00000252846BDE8F08770B504460023426EFD
:1022F000FFF7C1FFE0B1054610492046FFF71CFC7F
:102300002846FFF7BDFC01462046FFF715FC0C4EA2
:1023100031462046FFF710FC2846FFF723FB014615
:102320002046FFF709FC31462046FFF705FC70BD4B
:1023300004492046FFF700FCF9E700BFC8CC0008BD
:102340008CCC0008DCCC00082DE9F84F0546B0F82D
:1023500034A087894FB103694FF0000903F8079053
:10236000D0F864804F464C4622E0FFF73CFE012146
:102370002846FFF7F5FB56E008EB091949462846C1
:10238000FFF710FD4846FFF77BFC81463046FFF71C
:1023900077FC01464846FFF7CEFA824528BF8246C1
:1023A0001FFA8AFA1FFA84F90137BFB2013424B246
:1023B000B5F868309C421CDA08EB04163146284612
:1023C000FFF728FC0028F1D1D5F810B03046FFF710
:1023D00057FC01465846FFF7AEFAAB899842E5D163
:1023E000002FDFD0012FC7D12B492846FFF7A4FBD0
:1023F000C2E71FB3012F23D02C6908EB0918404610
:10240000FFF73EFC01462046FFF78AFAA881012F1C
:102410001AD82A69AB890021D154AB89EB8129698B
:102420002846FFF789FB01F01FFF38B1012F16D0B6
:1024300095F86C3043F0040385F86C30BDE8F88FF4
:102440002846FFF7E5FDD7E741462846FFF7AAFCF7
:1024500001212846FFF784FBA5F80CA0D9E795F8E1
:102460006C3013F0040FE3D001F0FEFE6B68C31A6A
:10247000C72BDDD808492846FFF75EFB29692846A7
:10248000FFF732FF01212846FFF76AFB296928463A
:10249000FFF752FBD2E700BF8CCC000838B50446EA
:1024A0000D46FFF733FB18B1012C02D0012C03DCE1
:1024B00038BDFFF798FDFBE76968FFF715FFF7E701
:1024C00008B54B7803F00F03023B052B16D8DFE865
:1024D00003F003060A0D0D0F8B68186808BD8B68A2
:1024E000B3F90000FAE78B681878F7E78868F5E732
:1024F0008A68536823B110689847EFE70020EDE73A
:102500000020EBE770B584B004460D46284B93E8F5
:10251000070004AB03E9070029462046FFF7D0FF78
:10252000064669682046FFF707FB22492046FFF769
:1025300003FB6B7803F00F03052B10D001A9304685
:10254000FFF7C0FBC0F10B0101AB19442046FFF7B8
:10255000F3FA19492046FFF7EFFA002316E0174D6A
:1025600029462046FFF7E8FA31462046FFF7E4FA0D
:1025700029462046FFF7E0FA12E003F110026A4410
:102580004FF0300C02F80CCC01331BB20A2BF4DDF7
:1025900001A93046FFF760FB01A92046FFF7CCFAFE
:1025A00007492046FFF7C8FA304604B070BD00BFA7
:1025B00024CC0008F0CC00081CCC0008F4CC0008A7
:1025C0008CCC000870B505460C464B7813F0400FD4
:1025D0000AD14B7803F00F03023B052B07D8DFE845
:1025E00003F00B0E1114191D1249FFF7A5FA21462D
:1025F0002846FFF787FF70BDA3681A60F7E7A36856
:102600001A80F4E7A3681A70F1E71146A068FFF793
:1026100087F9ECE70849FFF78FFAE8E7A3689E68B7
:10262000002EE4D0186810B11146B047DFE710461D
:10263000B047DCE7F8CC000814CD000870B50446BC
:102640000D46FFF763FA20B306460023426E21468B
:10265000FFF711FE014660B1437803F00F030E331C
:1026600003F00F03052B0AD82A463046FFF7AAFFCE
:1026700070BD09493046FFF75FFA0020F8E72146B0
:102680003046FFF759FA05493046FFF755FA002062
:10269000EEE70020ECE700BF28CD000838CD0008A9
:1026A00010B504460160886850B1037853B1E38ED9
:1026B000012B18D9A169FEF7C7FCB0B1002202E0D6
:1026C000012200E0012294F86C3062F3000384F8E8
:1026D0006C3009492046FFF72FFA94F86C3013F05C
:1026E000010F04D110BD0022EDE70122EBE7034901
:1026F0002046FFF721FAF5E704CC000894CA000849
:1027000038B5054600238381C381036090F86C00CF
:1027100040F0010085F86C0029611848A0FB0220F8
:102720004008A886A5F86030A5F85C30A5F85E30B2
:1027300009E003FB00040C4403F10E0205EB8202E6
:10274000546001331BB2072BF3DD0D4A6A660D4B53
:102750009B1A1B09A5F868302846FFF79BF8002351
:102760006A6E09492846FFF786FD01462846FFF7AD
:1027700097FF01212846FFF7F3F938BD398EE3387A
:1027800084CF0008A4D0000848CD000870B50446E6
:102790000D4690F86C3043F0020380F86C304B78B3
:1027A00013F00F0314D0012B23D04A7802F00F024C
:1027B0000E3202F00F02052A2AD9082B2CD000264F
:1027C00094F86C306FF3410384F86C30304670BD80
:1027D000FFF772F9AB6804F11401E08E98470646E2
:1027E0006B7813F0200FEBD101462046FFF79AFAE1
:1027F000E6E700F11403C28E00F003FA06466B7898
:1028000013F0200FDCD101462046FFF78BFAD7E703
:10281000FFF778FE0026D3E7FFF742FF0026CFE759
:1028200008B590F86C206FF3820280F86C20FFF7F7
:1028300057FC08BD83895BB310B5044602690021CB
:10284000D15490F86C3013F0010F1ED0FFF7FCF854
:102850002046FFF798F80023E381A381E38EB3B10C
:102860000C492046FFF768F90023626E6169204633
:10287000FFF701FD014618B12046FFF787FF06E08C
:1028800005492046FFF758F901E0FFF799F910BD17
:10289000704700BF8CCC0008DCCC000810B50446A3
:1028A000FFF7C8FF01212046FFF75AF910BD0000CD
:1028B00000296CD02DE9F04706468A46836B13F455
:1028C0007F4F08D113F47F090AD113F07F4F0ED147
:1028D0004FF0180808E06FF0FF094FF0000803E020
:1028E000DFF8AC904FF00808776E00240DE04FF051
:1028F0007F494FF01008F7E7AB680BB130469847B7
:102900000023B36333E0013424B2B6F868309C424C
:102910002ADA07EB04156B7803F00F03092BF2D1C9
:1029200029463046FFF776F90028ECD16B6803EAB8
:102930000901B26B9142E6D1FF2101FA08F10B4087
:102940000AFA08F18B42DED10A43B263B8F1000FF4
:10295000D2D06B68A8F10800FF2202FA00F003420F
:10296000CAD04FF0000ACEE7BAF1000F04D101F04F
:102970007BFC40B9BDE8F0870023B3635146304685
:10298000FFF74EFFF3E701F06FFC7060F2E770476E
:102990000000FFFF02460378302B05D0302B0AD011
:1029A000302B0FD0002010E04178582918BF78292B
:1029B000F4D1032009E05178422918BF6229EFD1F0
:1029C000012002E0022000E01A46134613F8011B22
:1029D00039B152782E2AF7D15A78002AF4D004203F
:1029E0007047704703463038C0B2092810D9A3F1A8
:1029F0006102D2B2052A07D9A3F14102D2B2052A57
:102A000005D8373BD8B27047573BD8B27047002043
:102A100070470000034640785C2800D070479878E3
:102A2000302837D0FAD37428F8D86228F6D3A0F12A
:102A30006203122BF2D801A252F823F0892A00086F
:102A40001D2A00081D2A00081D2A00081D2A00084A
:102A50001D2A00081D2A00081D2A00081D2A00083A
:102A60001D2A00081D2A00081D2A00088D2A0008BA
:102A70001D2A00081D2A00081D2A0008992A00089E
:102A80001D2A0008912A0008082070470A20704774
:102A900009207047002070470D20BFE770B506463B
:102AA0000378222B02D03546002409E00136FAE7EC
:102AB000681EFFF7AFFF3055013501350134A4B270
:102AC0002B7843B15C2BF3D0222B01D03355F4E7A4
:102AD00000233355F1E73355304670BD2DE9F843F7
:102AE000064603782D2B18D04FF001090020304402
:102AF000FFF750FF0746022816D0032818D00128F8
:102B00000FD000234FF00A08B9F1FF3F14D0002284
:102B100013441E440024234612E04FF0FF390120E5
:102B2000E5E702239846EFE701234FF00808EBE7BB
:102B300002234FF01008E7E70122E9E701360124FC
:102B4000307858B12E28F9D003FB08F5FFF74AFF7B
:102B50002B1804EB840464000136F1E7042F14BF42
:102B600000270127002C08BF00279FB107EE903AED
:102B7000F8EE677A07EE104AB8EE477AC7EE876A32
:102B800007EE909AF8EEE77A67EEA67A17EE900ACB
:102B9000BDE8F88303FB09F0FAE710B5044600230B
:102BA000426E0131FFF767FB20B101462046FFF777
:102BB00087FC10BD0020FCE708B50B78272B0BD055
:102BC000A3F13002D2B22D2B18BF092A0BD9242B26
:102BD0000DD093B9002008BD4A78002AF0D00846ED
:102BE000FFF718FFF7E70846FFF778FFF3E74A78A3
:102BF000002AEED0FFF7D1FFEDE70846FFF74EFFC2
:102C0000E9E72DE9F0478CB00646894615461F4690
:102C10002022002104A809F029FC99F8028008F07C
:102C20000F08A84501DA05F1FF3800240CE004F193
:102C3000010A57F82A103046FFF7BEFF0CAB03EB32
:102C4000840444F8200C544605F1FF3CA445EEDC16
:102C5000B8F1070F49D8DFE808F0040A0F151C2463
:102C60002E3AD9F8083098470CB0BDE8F087D9F86B
:102C7000083004989847F7E7D9F808300599049880
:102C80009847F1E7D9F80830069A059904989847CB
:102C9000EAE7D9F80840079B069A05990498A047E7
:102CA000E2E7D9F80840089B0093079B069A05992C
:102CB0000498A047D8E7D9F80840099B0193089BDE
:102CC0000093079B069A05990498A047CCE7D9F88A
:102CD00008400A9B0293099B0193089B0093079B62
:102CE000069A05990498A047BEE74FF0FF30BBE76E
:102CF00010B50C4640F2FF130A460146024807F0A1
:102D0000A6F920B210BD00BF7019002408B50A460C
:102D10004FF6FF730146044807F006FA08B1002099
:102D200008BD0120FCE700BF7019002400B583B086
:102D3000174BD3F8D82042F00102C3F8D820D3F8BB
:102D4000D83003F001030193019B002205210B20E1
:102D500001F0BCFA0B2001F0EFFA002205210C2053
:102D600001F0B4FA0C2001F0E7FA002205210D2051
:102D700001F0ACFA0D2001F0DFFA002205210E204F
:102D800001F0A4FA0E2001F0D7FA03B05DF804FBBD
:102D90000044025808B507F0B6FC000000B583B047
:102DA0000E480F4B43670F4B03674FF400720E49F9
:102DB000FFF7A6FC07E09DF807100848FFF778FD2D
:102DC000012007F0A5FC054B1B6F002BF8D001215B
:102DD0000DF1070098470128F2D1ECE7200A002402
:102DE000F12C00080D2D0008980A002408B50120D8
:102DF00007F08EFCFBE770470020704708B50E4ACD
:102E000000210E4807F020FC0D4B18600D4A0021F0
:102E10000D4807F019FC0D4B18600D4A00210D48B4
:102E200007F012FC0C4B18600C4A00210C4807F00C
:102E30000BFC0C4B186008BDBCCE0008952D00089B
:102E4000180A002404CF00089D2D0008980C0024C7
:102E5000E0CE0008ED2D00081C0A002498CE0008E2
:102E6000E1410008140A0024F0B58DB00024079455
:102E7000089409940A940B94414BD3F8E02042F053
:102E80001002C3F8E020D3F8E02002F01002019213
:102E9000019AD3F8E02042F08002C3F8E020D3F892
:102EA000E02002F080020292029AD3F8E02042F081
:102EB0000102C3F8E020D3F8E02002F001020392FF
:102EC000039AD3F8E02042F00402C3F8E020D3F8DC
:102ED000E02002F004020492049AD3F8E02042F0C9
:102EE0000202C3F8E020D3F8E02002F002020592CB
:102EF000059AD3F8E02042F00802C3F8E020D3F8A6
:102F0000E03003F008030693069B1E4D224608217D
:102F1000284602F0DEFE1C4F22461021384602F001
:102F2000D8FE01224FF42051284602F0D2FE082399
:102F300007930126089609940A9407A9284602F0E7
:102F4000B1FD10230793089609940A9407A93846FF
:102F500002F0A8FD4FF42053079308960994032329
:102F60000A9307A9284602F09DFD4FF4706307936A
:102F70000894099407A9054802F094FD0DB0F0BD2E
:102F8000004402580010025800080258000C025871
:102F900008B50268034B9A4200D008BD01F058F909
:102FA000FBE700BF0048014072B6FEE700B59FB0E6
:102FB0004C2200210BA809F059FA2022002103A875
:102FC00009F054FA022002F08BFE002300933B4BE1
:102FD000DA6A22F00102DA62DB6A03F0010300938D
:102FE000374B9A6942F440429A619B6903F440432B
:102FF0000093009B324B9B6913F4005FFAD0314B76
:10300000D3F8F42042F00202C3F8F420D3F8F430ED
:1030100003F002030193019B00230293284B9A695A
:1030200042F440429A619B6903F440430293234B6C
:10303000DA6A42F00102DA62DB6A03F0010302930A
:10304000029B1F4B9B6913F4005FFAD00B230B9379
:103050004FF480330C9301230E9340220F92109370
:1030600002231493159305221692C02217921893E7
:1030700019931A9308231B9300231C931D930BA8E9
:1030800002F058FEB0B93F230393032304930023B7
:103090000593082306934023079308934FF4806217
:1030A00009920A93042103A803F078FA20B91FB00B
:1030B0005DF804FBFFF778FFFFF776FF0004005888
:1030C000004802580044025800B5B1B0BC220021AB
:1030D00001A809F0CBF94FF00043019301A803F0D8
:1030E00023FD10B931B05DF804FBFFF75DFF000070
:1030F00008B51E4B5B6913F4003F13D1BFF34F8F2C
:10310000BFF36F8F194B0022C3F85022BFF34F8FCC
:10311000BFF36F8F5A6942F400325A61BFF34F8F89
:10312000BFF36F8F01F066F8FFF740FFFFF7CCFFAA
:10313000FFF79AFE00F034FC00F0B6F800F018F843
:10314000FFF7F4FD00F0C6FB00F0D0FC00F002FD3C
:1031500000F07AF800F05CFC00F08EFC07F046FA14
:10316000FFF74CFE07F054FAFEE700BF00ED00E069
:1031700000B587B000230193029303930493059352
:1031800000931C481C4A026043607F228260FF2239
:10319000C26003618361C361436104F015FC00BB3D
:1031A00000238DF804308DF805308DF80630049337
:1031B0000593012201A90F4804F05EFCA0B9012289
:1031C0008DF800208DF801208DF8022000238DF865
:1031D00003306946074804F0B3FC40B907B05DF816
:1031E00004FBFFF7E1FEDBE7FFF7DEFEE7E7FFF7B3
:1031F000DBFEF3E79C0C00240040005810B5B0B093
:103200000446BC22002101A809F030F922680C4BC9
:103210009A4201D030B010BD4FF4800301934FF4B7
:1032200000732D9301A803F07FFC28B9054A136FA2
:1032300043F400431367EDE7FFF7B6FEF6E700BF80
:10324000004000580044025808B51548154B03606B
:103250004FF480034360002383600F22C260036148
:103260004FF0807242614FF0806282614FF00052F5
:10327000C261036243628362C3624FF08042426371
:103280008363C363036443648364C3640365436506
:10329000836504F03DFD00B908BDFFF785FEFBE73F
:1032A000C00C00240030014008B51548154B0360E0
:1032B0004FF4800343604FF4C02383600723C3604F
:1032C0000023036143614FF0806282614FF000523E
:1032D000C261036243628362C3624FF08042426311
:1032E0008363C363036443648364C36403654365A6
:1032F000836504F00DFD00B908BDFFF755FEFBE73F
:10330000480D00240034014030B5B9B00446002116
:1033100033913491359136913791BC2204A809F04C
:10332000A5F823683A4A934204D03A4A93423DD0E2
:1033300039B030BD4FF4805304934FF480431B9356
:1033400004A803F0F1FB70BB334BD3F8F02042F438
:103350008052C3F8F020D3F8F02002F4805200929B
:10336000009AD3F8E02042F00102C3F8E020D3F83D
:10337000E03003F001030193019BE0233393022328
:1033800034930024359436940525379533A9234882
:1033900002F088FB22462946232000F097FF2320D5
:1033A00000F0CAFFC4E7FFF7FFFDCDE74FF400537D
:1033B000049304A803F0B8FB38BB174BD3F8F020F4
:1033C00042F40052C3F8F020D3F8F02002F4005287
:1033D0000292029AD3F8E02042F01002C3F8E020F3
:1033E000D3F8E03003F010030393039B4FF4A043A2
:1033F0003393022334930022359236930523379377
:1034000033A9074802F04EFB92E7FFF7CDFDD4E762
:1034100000300140003401400044025800000258CE
:103420000010025800B583B00A4BD3F8F42042F0E4
:103430000202C3F8F420D3F8F43003F0020301933E
:10344000019B00220F216FF0010000F03FFF03B04D
:103450005DF804FB004402580F2801D90120704791
:1034600010B58AB0044600220146762000F02EFFF7
:10347000762000F061FF174B1C60174BD3F8F0204B
:1034800042F48022C3F8F020D3F8F03003F4802314
:103490000093009B01A902A803F010FA03F0FCF9C5
:1034A00043000E48A0FB03239B0C013B0C480D4A34
:1034B000026040F2E732C260436000230361836030
:1034C00005F004FD10B101200AB010BD044805F05C
:1034D00061FBF9E7D40000240044025883DE1B435B
:1034E000D00D002400480140FEE7FEE7FEE7FEE7BE
:1034F000FEE7704708B5024801F036FF08BD00BF7F
:103500007016002408B5024801F02EFF08BD00BF68
:10351000E816002408B5024801F026FF08BD00BFE8
:103520006017002408B5024801F01EFF08BD00BF67
:10353000D817002408B5024805F0B0F808BD00BF50
:10354000C00C002408B5024805F08CFF08BD00BF80
:103550005018002408B5024805F084FF08BD00BFDC
:10356000E018002408B5024805F07CFF08BD00BF44
:103570007019002408B5024805F074FF08BD00BFAB
:10358000001A002438B55C4B1B68DA6912F0100F82
:1035900003D1594805F066FF38BD10221A6256481B
:1035A00005F0BCFE554B1B685549564A934218BF5F
:1035B0008B4230D0183293422DD0183293422AD009
:1035C0001832934227D01832934224D018329342B3
:1035D00021D0183293421ED002F5567293421AD06F
:1035E0001832934217D01832934214D018329342B3
:1035F00011D0183293420ED0183293420BD01832A9
:10360000934208D01832934205D05B689BB2C3F551
:1036100080639BB204E05B689BB2C3F580639BB29E
:10362000394A1380394B1B78312B1CD0374B1B7810
:10363000462B18BF312B24D8344B1B78462B57D040
:10364000324C6278324B1A7000212F4B19804FF4A4
:1036500080652A46204608F009FF2A46214626486A
:1036600006F0BEFE95E72B48FDF7D8FE274B5878AD
:1036700000F05AFD284B18600028D7D000F01EFD3E
:10368000D4E722494B78244C63638B7AA3638A780E
:10369000A2F130036420CA78303A02EB8202520071
:1036A00000FB03220B79303B1A44E263CB7AA3F18F
:1036B00030020B7B303B03EB83035B0000FB0233E8
:1036C0004A7B303A134423641448FDF7A7FE236C69
:1036D000E26B94F8381094F8340000F017FDC0B293
:1036E00000F022FD20600028A6D000F0E7FCA3E750
:1036F0000020FDF793FEA3E7901A00246017002432
:1037000010000240280002406C1600246C120024B5
:103710006C0E0024400D0300201B0024F049020021
:1037200008B5024805F082FA08BD00BFD00D00249C
:1037300010B503460C4A0D490D48006840B10C48CD
:1037400000680344521A934206D8094A136010BD18
:103750000748084C0460F2E708F05EFE0C230360A3
:103760004FF0FF30F3E700BF000008240004000022
:103770001C0E002468B10024274AD2F8883043F494
:103780007003C2F88830254B1B6803F00F03062B2B
:1037900006D8224A136823F00F0343F0070313608F
:1037A0001F4B1A6842F001021A6000221A61196860
:1037B0001C4A0A401A60194B1B6813F0080F06D008
:1037C000164A136823F00F0343F007031360144BEA
:1037D00000229A61DA611A62134999621349D96227
:1037E000134919635A639963DA6319645A6419684F
:1037F00021F4802119601A660E4B1A680E4B134093
:10380000B3F1005F03D20D4B0122C3F808210C4B2A
:1038100043F2D2021A60704700ED00E0002000522F
:10382000004402587FEDF6EA000202020000FF01A8
:10383000800201010010005C0000FFFF00800051C9
:103840000040005202680A4B9A4200D0704782B092
:10385000084BD3F8F02042F00102C3F8F020D3F86F
:10386000F03003F001030193019B02B0704700BFE9
:10387000000001400044025800B587B000230193C6
:10388000029303930493059302680F4B9A4202D06C
:1038900007B05DF804FB0D4BD3F8E02042F01002B6
:1038A000C3F8E020D3F8E03003F010030093009B4E
:1038B0004FF480630193022302930123059301A92E
:1038C000034802F0EFF8E3E700000140004402582B
:1038D0000010025810B596B0002413941494159457
:1038E0000C940D940E940F941094119412942C2215
:1038F000214601A808F0BAFD2748284B036017238A
:103900004360846040F2E733C360046144618461D2
:1039100005F00CFB002832D1002313931493159368
:1039200013A91D4805F01AFC00282BD160230C9325
:1039300000230D930E930F9310931193129304226F
:103940000CA9154805F06CFBF8B90023019302930C
:103950000393049305934FF4005206920793089340
:103960004FF0007209920A930B9301A90A4805F0DF
:1039700045FC68B90848FFF77FFF16B010BDFFF798
:1039800013FBC9E7FFF710FBD0E7FFF70DFBDCE700
:10399000FFF70AFBEEE700BF200E00240000014005
:1039A00008B51948194B03604FF4E1334360002315
:1039B0008360C36003610C2242618361C36103625F
:1039C0004362102383624FF48053C36306F07AFC92
:1039D00070B900210C4806F079FD60B900210A4851
:1039E00006F099FD50B9084806F051FD48B908BDE8
:1039F000FFF7DAFAEDE7FFF7D7FAEFE7FFF7D4FAC8
:103A0000F1E7FFF7D1FAF2E770190024004C00400B
:103A100008B51748174B03604FF4E13343600023A8
:103A20008360C36003610C2242618361C3610362EE
:103A30004362836206F046FC70B900210C4806F030
:103A400045FD60B900210A4806F065FD50B90848F7
:103A500006F01DFD48B908BDFFF7A6FAEDE7FFF730
:103A6000A3FAEFE7FFF7A0FAF1E7FFF79DFAF2E715
:103A7000001A00240050004008B51A481A4B036091
:103A80004FF4E133436000238360C36003610C2281
:103A900042618361C36103624362836206F012FC88
:103AA000A0B900210F4806F011FD90B900210D4882
:103AB00006F031FD80B90B4806F0E9FC78B9094BF6
:103AC0001A68136843F01003136008BDFFF76CFA1F
:103AD000E7E7FFF769FAE9E7FFF766FAEBE7FFF7D1
:103AE00063FAECE7901A0024007C004008B5174800
:103AF000174B03604FF4E133436000238360C360DE
:103B000003610C2242618361C36103624362836289
:103B100006F0D8FB70B900210C4806F0D7FC60B95C
:103B200000210A4806F0F7FC50B9084806F0AFFC3F
:103B300048B908BDFFF738FAEDE7FFF735FAEFE7C8
:103B4000FFF732FAF1E7FFF72FFAF2E750180024F7
:103B50000044004008B51748174B03604FF4E133A9
:103B6000436000238360C36003610C224261836170
:103B7000C36103624362836206F0A4FB70B9002153
:103B80000C4806F0A3FC60B900210A4806F0C3FC0B
:103B900050B9084806F07BFC48B908BDFFF704FAA5
:103BA000EDE7FFF701FAEFE7FFF7FEF9F1E7FFF7BF
:103BB000FBF9F2E7E01800240048004030B5BFB040
:103BC0000446002139913A913B913C913D91BC22B0
:103BD0000AA808F04BFC2368934A934210D0934AFA
:103BE00093427BD0924A934200F0B180914A934233
:103BF00000F03C81904A934200F070813FB030BDAC
:103C000002230A930AA802F08FFF00285DD18B4B94
:103C1000D3F8E82042F40022C3F8E820D3F8E820E3
:103C200002F400220092009AD3F8E02042F0010250
:103C3000C3F8E020D3F8E03003F001030193019BC7
:103C40000323399302233A9300253B953C9508239F
:103C50003D9339A97A4801F025FF7A487A4B0360F1
:103C60003F2343608560C5604FF480630361456115
:103C700085614FF48073C3610562456200F07EFD8B
:103C800030BB704BE3679C637048714B036040230B
:103C9000436083600023C3604FF48062026143612C
:103CA00083614FF48072C2610362436200F066FD7B
:103CB00088B9664BA3679C6300220521342000F07D
:103CC00005FB342000F038FB98E7FFF76DF99EE71D
:103CD000FFF76AF9D5E7FFF767F9EAE702230A93E6
:103CE0000AA802F021FF78BB544BD3F8E82042F435
:103CF0008012C3F8E820D3F8E82002F48012029280
:103D0000029AD3F8E02042F00202C3F8E020D3F890
:103D1000E03003F002030393039B4FF440533993C5
:103D200002233A9300243B943C940E233D9339A9FB
:103D3000484801F0B7FE22460521352000F0C6FABA
:103D4000352000F0F9FA59E7FFF72EF9CCE7022306
:103D50000A930AA802F0E8FE00285CD1374BD3F89A
:103D6000E82042F00042C3F8E820D3F8E82002F04F
:103D700000420492049AD3F8E02042F01002C3F803
:103D8000E020D3F8E03003F010030593059B0323F4
:103D9000399302233A9300253B953C9508233D93A4
:103DA00039A92D4801F07EFE2C482D4B036051238C
:103DB00043608560C5604FF4806303614561856140
:103DC0004FF48073C3610562456200F0D7FC28BBE5
:103DD000224BE3679C632348234B036052234360D9
:103DE000402383600023C3604FF48062026143611B
:103DF0008361C3610362436200F0C0FC88B9194B60
:103E0000A3679C6300220521532000F05FFA532032
:103E100000F092FAF2E6FFF7C7F89FE7FFF7C4F861
:103E2000D6E7FFF7C1F8EAE7004C00400050004039
:103E3000007C00400044004000480040004402581C
:103E4000000002587016002410000240E8160024FA
:103E50002800024000040258001002586017002495
:103E600040000240D81700245800024002230A9361
:103E70000AA802F059FE70BB354BD3F8E82042F493
:103E80000032C3F8E820D3F8E82002F400320692AA
:103E9000069AD3F8E02042F00102C3F8E020D3F8FC
:103EA000E03003F001030793079B0C2339930223AF
:103EB0003A9300243B943C9407233D9339A9254829
:103EC00001F0F0FD22460521262000F0FFF9262012
:103ED00000F032FA92E6FFF767F8CDE702230A9383
:103EE0000AA802F021FE78BB194BD3F8E82042F46F
:103EF0008022C3F8E820D3F8E82002F48022089258
:103F0000089AD3F8E02042F00202C3F8E020D3F888
:103F1000E03003F002030993099B4FF440633993A7
:103F200002233A9300243B943C9407233D9339A900
:103F3000094801F0B7FD22460521272000F0C6F907
:103F4000272000F0F9F959E6FFF72EF8CCE700BF7B
:103F5000004402580000025800040258DFF834D030
:103F6000FFF70AFC0C480D490D4A002302E0D45823
:103F7000C4500433C4188C42F9D30A4A0A4C0023B3
:103F800001E013600432A242FBD308F04BFAFFF7C2
:103F9000AFF8704700000824000000241C0900242A
:103FA000B8D000082009002464B10024FEE7000016
:103FB00070B53B4C00220A212046FDF735FA394AFC
:103FC00021460220FDF730FB642000F053F9002465
:103FD00013E006F0EDFA07EE900AF8EE677A17EEB6
:103FE000900AFCF7F1FA02460B462F4DD5E908017D
:103FF000FCF78CF9C5E908010134312CE9DD2A4EC2
:1040000000222A4BD6E90801FCF760FC02460B4669
:10401000C6E908230022264BFCF776F904460D4634
:10402000C6E90C4500220023FCF798FDF8B92046AC
:1040300025F0004100221F4BFCF748FC16A3D3E9F2
:104040000023FCF719FBFCF7B1FD174A53691B1A53
:104050005361154C61690220FDF7AEFA0020FDF7AF
:10406000DDF9154B01225A6062691A6170BD204664
:1040700025F0004100220F4BFCF728FC06A3D3E9F2
:104080000023FCF7F9FAFCF791FD736903447361AF
:10409000DFE700BFAFF3008000000000006A1841B6
:1040A0003C090024A4090024900900240000494090
:1040B0000000594000805640201B002410B5114AD2
:1040C000136851685B1A936083EAE372A2EBE372B0
:1040D000032A0ED00B4C2169A3680B4A02FB031183
:1040E000E1600220FDF768FA23686360E3682361FA
:1040F00010BD002B03DB043B024A9360EAE7043364
:10410000FAE700BF201B0024801A06009A4200DC58
:1041100008467047034B00225A619A61DA611A62BD
:104120005A627047201B00242C4A536901335361A3
:1041300041282CD042282FD0432832D0442835D0D3
:10414000052B48D110B5254A9369D269934201DB0A
:1041500022498B62934201DC20498A621F49086A26
:10416000896A884201DB1D4988621C494C6A896A58
:104170008C4201DB19498C621849896A8B421AD03A
:104180008A421CD088421ED08C4220D010BD1146DD
:10419000926901328A61CDE71049CA690132CA6168
:1041A000CAE70E490A6A01320A62C7E70B494A6A3E
:1041B00001324A62C4E7FFF7ADFF0120E6E7FFF7EF
:1041C000A9FF0220E2E7FFF7A5FF0320DEE7FFF7E4
:1041D000A1FF0420DAE70020704700BF201B002465
:1041E00008B5FFF7E5FEFDF7D3FA012006F090FAD7
:1041F000F9E7000010B5032000F056F802F0D4F8FB
:104200000F498B69C3F303230E4AD35C03F01F03EA
:10421000D8408B6903F00F03D35C03F01F0320FA2F
:1042200003F3094A1360094B18600F20FFF714F9D4
:1042300010B10124204610BD0446FFF7F3F8F9E75A
:104240000044025828CF0008CC000024C8000024F5
:10425000034B1B78034A11680B441360704700BF7F
:10426000D0000024641B0024014B1868704700BF75
:10427000641B002438B50446FFF7F6FF0546B4F189
:10428000FF3F02D0044B1B781C44FFF7EDFF401B9F
:10429000A042FAD338BD00BFD0000024014B1868FB
:1042A000000C70470010005C0649CB6823F4E06303
:1042B0001B041B0C000200F4E0600343024A1A4393
:1042C000CA60704700ED00E00000FA0500B5174B2A
:1042D000DB68C3F30223C3F1070CBCF1040F28BF52
:1042E0004FF0040C03F1040EBEF1060F14D9033B8A
:1042F0004FF0FF3E0EFA0CFC21EA0C0199400EFA39
:1043000003F322EA03031943002807DB0901C9B2BA
:10431000074B19545DF804FB0023E9E700F00F0098
:104320000901C9B2034B1954F4E700BF00ED00E0E6
:1043300000E400E014ED00E0002807DB00F01F02BD
:10434000400901239340024A42F82030704700BFE1
:1043500000E100E0F0B4876D0468664E664DAC4243
:1043600018BFB44242D01835AC423FD01835AC42E9
:104370003CD01835AC4239D01835AC4236D018355F
:10438000AC4233D01835AC4230D005F55675AC424E
:104390002CD01835AC4229D01835AC4226D018356F
:1043A000AC4223D01835AC4220D01835AC421DD0D9
:1043B0001835AC421AD01835AC4217D04F4DAC422C
:1043C00014D01435AC4211D01435AC420ED0143593
:1043D000AC420BD01435AC4208D01435AC4205D0F9
:1043E0001435AC4202D01435AC4207D1446E856E10
:1043F0006560C46E14B1046F456F656004683D4E1E
:104400003D4DAC4218BFB44252D01835AC424FD0EB
:104410001835AC424CD01835AC4249D01835AC42B6
:1044200046D01835AC4243D01835AC4240D005F5E3
:104430005675AC423CD01835AC4239D01835AC4238
:1044400036D01835AC4233D01835AC4230D01835A0
:10445000AC422DD01835AC422AD01835AC4227D00A
:10446000264E274DAC4218BFB44211D0254DAC4268
:104470000ED01435AC420BD01435AC4208D01435F4
:10448000AC4205D01435AC4202D01435AC4224D134
:10449000C46D04F01F050124AC407C6004686360B7
:1044A0008368402B20D0036899600368DA6014E0C9
:1044B000C46D04F01F0C3F2404FA0CF4BC600568C2
:1044C0002C6824F480242C60046863608368402B8B
:1044D00005D0036899600368DA60F0BC7047036830
:1044E0009A600368D960F8E703689A600368D96046
:1044F000F3E700BF100002402800024008540258B1
:104500001C5402583054025803682749274A9342E2
:1045100018BF8B422FD0183293422CD018329342BE
:1045200029D01832934226D01832934223D0183221
:10453000934220D0183293421DD002F55672934216
:1045400019D01832934216D01832934213D0183231
:10455000934210D0183293420DD0183293420AD0B1
:104560001832934207D01832934204D023F0FF034D
:104570008365806D704710B4D9B210390C4AA2FB24
:104580000142C2F302120B4CA25CC2655F2907D93B
:10459000094A1A4004328265806D5DF8044B704709
:1045A000054A1A408265F7E71000024028000240E1
:1045B000ABAAAAAA38CF000800FCFFFF83699BB909
:1045C000836A012B0AD0022B02D00BB10020704766
:1045D000C36A13F0807F2AD100207047C36AB3F109
:1045E000C07F26D000207047B3F5005F0AD0836AF1
:1045F000022B26D9032B26D1C36A13F0807F24D146
:1046000000207047836A032B03D8DFE803F014040B
:10461000140A00207047C36A13F0807F0DD1002078
:104620007047C36AB3F1C07F09D0002070470120F2
:10463000704701207047012070470120704701201A
:10464000704701207047002070470120704700002C
:1046500003682249224A934218BF8B4228D0143261
:10466000934225D01432934222D0143293421FD069
:10467000143293421CD01432934219D01432934214
:1046800016D0DAB2103A1749A1FB021212091649E4
:104690001944A8291FD9154B13449B000366144BDA
:1046A000436602F01F02012303FA02F2826670479A
:1046B000DBB2083B0F4AA2FB03230F4A02EB1312A3
:1046C000920002660D4A4266C3F30413012202FA05
:1046D00003F3836670470832DDE700BF08540258D1
:1046E0001C540258ABAAAAAAF0FBFDBF008200101E
:1046F00080080240CDCCCCCC0096001680580258E1
:1047000001794A1E072A2CD830B40368154D164C7F
:10471000A34218BFAB4218D01434A34215D01434AE
:10472000A34212D01434A3420FD01434A3420CD0AD
:104730001434A34209D01434A34206D00B4B0B44CB
:104740009B00C3660A4B036705E00A4B0B449B00C2
:10475000C366094B0367012303FA02F2426730BCC8
:1047600070477047085402581C5402583F8200108A
:10477000400902403F9600164059025870B5044661
:10478000FFF772FD002C00F0B681054623685349FF
:10479000534A934218BF8B420CBF0122002250D0D3
:1047A00030318B424DD018318B424AD018318B4278
:1047B00047D018318B4244D018318B4241D0183148
:1047C0008B423ED001F556718B423AD018318B4264
:1047D00037D018318B4234D018318B4231D0183158
:1047E0008B422ED018318B422BD018318B4228D0DF
:1047F00018318B4225D03B493B4A934218BF8B422C
:1048000000F03181394A934200F02D8114329342F5
:1048100000F029811432934200F025811432934232
:1048200000F021811432934200F01D811432934232
:1048300000F0198140236365032384F8353001209B
:104840004AE0022184F83510002184F834107ABB44
:10485000274A93422CD01832934229D018329342DF
:1048600026D01832934223D01832934220D01832E7
:1048700093421DD002F55672934219D018329342DA
:1048800016D01832934213D01832934210D01832F7
:1048900093420DD0183293420AD01832934207D077
:1048A0001832934204D01A6822F001021A6003E021
:1048B0001A6822F001021A6023681A6812F0010FC8
:1048C00018D0FFF7D1FC431B052BF5D920236365D6
:1048D000032384F83530012070BD00BF1000024072
:1048E00028000240085402581C5402583054025800
:1048F000400002401A6881481040A168E2680A43FB
:1049000021690A4361690A43A1690A43E1690A43CB
:10491000216A0A430243616A042900F099807849B8
:10492000086878490140B1F1005F11D36168A1F1D5
:104930002905A1F13F00032888BF052D06D9A1F163
:104940004700012802D94F39032901D842F48012C7
:104950001A602668756925F00705636A1D43042BF4
:1049600008D1A36A1D43E36A23B12046FFF726FE60
:10497000002872D175612046FFF7C6FDE36D03F094
:104980001F023F239340836023685F495F4A93423D
:1049900018BF8B4242D0183293423FD01832934214
:1049A0003CD01832934239D01832934236D0183264
:1049B000934233D01832934230D002F5567293426C
:1049C0002CD01832934229D01832934226D0183274
:1049D000934223D01832934220D0183293421DD0F4
:1049E000183293421AD01832934217D0484A934251
:1049F00014D01432934211D0143293420ED0143298
:104A000093420BD01432934208D01432934205D013
:104A10001432934202D01432934213D12046FFF74E
:104A200017FEA368802B59D0236E22791A60636E1B
:104A3000A26E5A606368013B072B52D90023E366DC
:104A40002367636700206065012384F8353043E7FE
:104A5000E16A206B01430A4361E74023636501205B
:104A600084F8350038E7022284F83520002284F8E3
:104A700034201A6827491140A268402A2CD0802A85
:104A800027D00022E06842EAD002206942EAD00240
:104A9000606942EAD002A06942EAD002E06942EAD3
:104AA000D002206A42EA10120A431A6022681A4BA6
:104AB00013441A4AA2FB03231B099B00E36520460B
:104AC000FFF722FDE26D02F01F0101228A404260E1
:104AD0005AE74FF48042D5E71022D3E70023636002
:104AE000A2E72046FFF70CFEE36E00221A60236F58
:104AF000626F5A60A6E70120EEE600BF3F8010FE1D
:104B00000010005C0000FFFF10000240280002407F
:104B1000085402580F00FEFFF8ABFDA7CDCCCCCC5B
:104B2000002800F03E8170B5044690F8340001285A
:104B300000F03981012084F8340094F83500C0B2C7
:104B4000012807D04FF400636365002384F83430F4
:104B5000012070BD022084F83500002060652068C7
:104B6000924E934DA84218BFB0422FD01835A8429C
:104B70002CD01835A84229D01835A84226D018358F
:104B8000A84223D01835A84220D01835A8421DD0FD
:104B900005F55675A84219D01835A84216D0183513
:104BA000A84213D01835A84210D01835A8420DD00D
:104BB0001835A8420AD01835A84207D01835A8429F
:104BC00004D0056825F00105056003E0056825F0BF
:104BD000010505602046FFF7BDFB23687349744A51
:104BE000934218BF8B4238D01832934235D01832D6
:104BF000934232D0183293422FD0183293422CD0A5
:104C00001832934229D01832934226D002F55672B8
:104C1000934222D0183293421FD0183293421CD0B4
:104C20001832934219D01832934216D01832934258
:104C300013D01832934210D0183293420DD01A6814
:104C400022F00E0242F00A021A60236C93B122682D
:104C5000136843F0040313600CE01A6822F01E028C
:104C600042F016021A60236C23B12268136843F0E5
:104C70000803136023684D494D4A934218BF8B4285
:104C800042D0183293423FD0183293423CD018326F
:104C9000934239D01832934236D01832934233D0EF
:104CA0001832934230D002F5567293422CD018320B
:104CB000934229D01832934226D01832934223D0FF
:104CC0001832934220D0183293421DD018329342AA
:104CD0001AD01832934217D0364A934214D0143265
:104CE000934211D0143293420ED0143293420BD01F
:104CF0001432934208D01432934205D014329342B6
:104D000002D0143293420ED1236E1A6812F4803FFF
:104D100003D01A6842F480721A60E36E1BB11A68FD
:104D200042F480721A6023682049214A934218BFD6
:104D30008B4230D0183293422DD0183293422AD071
:104D40001832934227D01832934224D0183293421B
:104D500021D0183293421ED002F5567293421AD0D7
:104D60001832934217D01832934214D0183293421B
:104D700011D0183293420ED0183293420BD0183211
:104D8000934208D01832934205D01A6842F00102CB
:104D90001A600020DDE61A6842F001021A60002065
:104DA000D7E6012070470220D3E600BF1000024082
:104DB000280002400854025870B50446FFF754FA20
:104DC000002C00F09181054694F83530DBB2022BBF
:104DD00006D080236365002384F83430012070BD41
:104DE00023688C498C4A934218BF8B4230D01832CA
:104DF00093422DD0183293422AD01832934227D0B2
:104E00001832934224D01832934221D01832934260
:104E10001ED002F5567293421AD01832934217D020
:104E20001832934214D01832934211D01832934260
:104E30000ED0183293420BD01832934208D0183259
:104E4000934205D01A6822F00E021A60266809E023
:104E50001A6822F01E021A602268536923F0800348
:104E60005361266823686B496B4A934218BF8B4293
:104E700042D0183293423FD0183293423CD018327D
:104E8000934239D01832934236D01832934233D0FD
:104E90001832934230D002F5567293422CD0183219
:104EA000934229D01832934226D01832934223D00D
:104EB0001832934220D0183293421DD018329342B8
:104EC0001AD01832934217D0544A934214D0143255
:104ED000934211D0143293420ED0143293420BD02D
:104EE0001432934208D01432934205D014329342C4
:104EF00002D01432934204D1226E136823F48073DB
:104F0000136023684349444A934218BF8B422FD011
:104F1000183293422CD01832934229D0183293423F
:104F200026D01832934223D01832934220D0183220
:104F300093421DD002F55672934219D01832934213
:104F400016D01832934213D01832934210D0183230
:104F500093420DD0183293420AD01832934207D0B0
:104F60001832934204D01A6822F001021A6003E05A
:104F70001A6822F001021A60336813F0010F0ED094
:104F8000FFF772F9431B052BF6D920236365032332
:104F900084F83530002384F8343001201FE723687B
:104FA0001C491D4A934218BF8B4239D01832934294
:104FB00036D01832934233D01832934230D0183260
:104FC00093422DD0183293422AD01832934227D0E0
:104FD00002F55672934223D01832934220D01832F1
:104FE00093421DD0183293421AD01832934217D0F0
:104FF0001832934214D01832934211D0183293428F
:105000000ED0A16DE36D03F01F02012393404B60AE
:105010000DE000BF10000240280002400854025872
:10502000A16DE36D03F01F023F2393408B60236863
:105030002E492F4A934218BF8B4242D018329342D6
:105040003FD0183293423CD01832934239D01832B4
:10505000934236D01832934233D01832934230D034
:1050600002F5567293422CD01832934229D018324E
:10507000934226D01832934223D01832934220D044
:10508000183293421DD0183293421AD018329342EC
:1050900017D0184A934214D01432934211D01432CC
:1050A00093420ED0143293420BD01432934208D064
:1050B0001432934205D01432934202D014329342F8
:1050C0000BD1636EA26E5A60E36E33B11A6822F49C
:1050D00080721A60236F626F5A60012384F8353042
:1050E000002084F834007AE6012078E610000240BF
:1050F0002800024008540258002800F0298108B511
:10510000024690F83530DBB2022B03D08023436592
:10511000012008BD0368904890498B4218BF834224
:105120000CBF0121002166D03030834263D018309B
:10513000834260D0183083425DD0183083425AD009
:105140001830834257D01830834254D000F556703F
:10515000834250D0183083424DD0183083424AD019
:105160001830834247D01830834244D018308342ED
:1051700041D0183083423ED0183083423BD019686A
:1051800021F00E0119601368A0F5956073498B42F8
:1051900018BF83426AD072498B4267D018318B4264
:1051A00064D018318B4261D018318B425ED01831F7
:1051B0008B425BD018318B4258D001F556718B422F
:1051C00054D018318B4251D018318B424ED0183107
:1051D0008B424BD018318B4248D018318B4245D08E
:1051E00018318B4242D018318B423FD0196821F0E0
:1051F000010119603EE0042082F8350081BB584A65
:1052000093422DD0183293422AD01832934227D09D
:105210001832934224D01832934221D0183293424C
:105220001ED002F5567293421AD01832934217D00C
:105230001832934214D01832934211D0183293424C
:105240000ED0183293420BD01832934208D0183245
:10525000934205D01A6822F001021A60002058E734
:105260001A6822F001021A60002052E7196821F042
:10527000010119601368384838498B4218BF8342CE
:1052800042D018318B423FD018318B423CD018317C
:105290008B4239D018318B4236D018318B4233D003
:1052A00018318B4230D001F556718B422CD0183119
:1052B0008B4229D018318B4226D018318B4223D013
:1052C00018318B4220D018318B421DD018318B42BF
:1052D0001AD018318B4217D022498B4214D0143186
:1052E0008B4211D014318B420ED014318B420BD033
:1052F00014318B4208D014318B4205D014318B42CB
:1053000002D014318B4217D1116E0B6823F48073D5
:105310000B60906DD36D03F01F0101238B40436040
:10532000536E916E5960D36E33B1196821F4807158
:105330001960136F516F5960012382F835300023D3
:1053400082F83430136D2BB1104698470020E0E608
:10535000012070470020DCE61000024028000240D7
:105360004000024008540258F0B583B004460023C0
:1053700001937D4B1D687D4BA3FB0535AD0A876D01
:105380003E68D7F800C0036879497A48834218BF5D
:105390008B420CBF0120002061D0774A93425ED03F
:1053A000183293425BD01832934258D0183293424D
:1053B00055D01832934252D0183293424FD002F552
:1053C000567293424BD01832934248D018329342CF
:1053D00045D01832934242D0183293423FD018320F
:1053E00093423CD01832934239D01832934236D08F
:1053F0006249634A934218BF8B4212D0614A93427A
:105400000FD0143293420CD01432934209D014328C
:10541000934206D01432934203D01432934240F0A8
:1054200061821A68E16D01F01F010420884010EAD2
:105430000C0F00F0A78212F0040F00F0A382786036
:1054400012F4004F00F05A8212F4803F40F0508274
:10545000A36C002B00F046822046984742E2E26DA2
:1054600002F01F0108228A40324241D070BB424AFA
:1054700093422BD01832934228D01832934225D031
:105480001832934222D0183293421FD018329342DE
:105490001CD002F55672934218D01832934215D0A0
:1054A0001832934212D0183293420FD018329342DE
:1054B0000CD01832934209D01832934206D01832D9
:1054C000934203D01A68C2F3C00202E01A68C2F322
:1054D00080026AB11A6822F004021A60E36D03F0D8
:1054E0001F0208239340BB60636D43F001036365B3
:1054F000E26D02F01F0226FA02F313F0010F47D00B
:1055000023681B481B498B4218BF83423CD018318B
:105510008B4239D018318B4236D018318B4233D080
:1055200018318B4230D018318B422DD018318B423C
:105530002AD001F556718B4226D018318B4223D0E8
:1055400018318B4220D018318B421DD018318B423C
:105550001AD018318B4217D018318B4214D0183121
:105560008B4211D01B6813E0C8000024B5814E1B8C
:105570001000024028000240400002400854025837
:105580001C540258305402585B6913F0800F3BD111
:10559000E36D03F01F03042202FA03F3334240D009
:1055A0002268964896498A4218BF824235D01831FF
:1055B0008A4232D018318A422FD018318A422CD0F8
:1055C00018318A4229D018318A4226D018318A42AD
:1055D00023D001F556718A421FD018318A421CD05F
:1055E00018318A4219D018318A4216D018318A42AD
:1055F00013D018318A4210D018318A420DD0183198
:105600008A420AD013680CE0012303FA02F2BA605E
:10561000636D43F002036365BAE7126812F0020F8C
:105620003DD1E36D03F01F03102202FA03F333426E
:105630005FD02268714872498A4218BF824234D0D2
:1056400018318A4231D018318A422ED018318A421C
:105650002BD018318A4228D018318A4225D01831EF
:105660008A4222D001F556718A421ED018318A42F0
:105670001BD018318A4218D018318A4215D01831FF
:105680008A4212D018318A420FD018318A420CD087
:1056900018318A4209D01268C2F3800208E0BB6068
:1056A000636D43F004036365BBE71268C2F3C00295
:1056B000FAB1BB6023681A6812F4802F0DD01B6802
:1056C00013F4002F04D1236C9BB12046984710E0BF
:1056D000A36C73B1204698470BE01A6812F4807FE0
:1056E00003D11A6822F008021A60236C0BB120461D
:1056F0009847E36D03F01F03202202FA03F33342BD
:1057000000F0928022683D483D498A4218BF82429B
:105710002ED018318A422BD018318A4228D0183125
:105720008A4225D018318A4222D018318A421FD0AD
:1057300018318A421CD001F556718A4218D01831AE
:105740008A4215D018318A4212D018318A420FD0BD
:1057500018318A420CD018318A4209D018318A4255
:1057600006D018318A4203D01268C2F3400202E028
:105770001268C2F30012002A56D0BB6094F835308C
:10578000DBB2042B0ED023681A6812F4802F39D0B4
:105790001B6813F4002F2CD1636C002B44D02046DF
:1057A000984741E02268136823F0160313602268CB
:1057B000536923F080035361236CB3B122681368EB
:1057C00023F008031360E36D03F01F023F239340AF
:1057D000BB60012384F83530002384F83430236D16
:1057E000002B7FD0204698477CE0A36C002BE5D1AE
:1057F000E9E7E36BC3B12046984715E0100002408B
:10580000280002401A6812F4807F09D11A6822F039
:1058100010021A60012384F83530002384F83430F4
:10582000E36B0BB120469847636D002B5AD0636D34
:1058300013F0010F52D0042384F8353023689649C1
:10584000964A934218BF8B422FD0183293422CD0E5
:105850001832934229D01832934226D018329342FC
:1058600023D01832934220D0183293421DD002F533
:105870005672934219D01832934216D0183293427E
:1058800013D01832934210D0183293420DD01832F0
:1058900093420AD01832934207D01832934204D070
:1058A0001A6822F001021A6003E01A6822F001026D
:1058B0001A60019B01330193AB4204D823681B6833
:1058C00013F0010FF5D123681B6813F0010F0BD003
:1058D000032384F83530002384F83430E36C0BB1B3
:1058E0002046984703B0F0BD012384F83530F2E735
:1058F000236C002BF6D020469847F3E712F0200FD8
:105900003AD123686449654A934218BF8B422FD02D
:10591000183293422CD01832934229D01832934235
:1059200026D01832934223D01832934220D0183216
:1059300093421DD002F55672934219D01832934209
:1059400016D01832934213D01832934210D0183226
:1059500093420DD0183293420AD01832934207D0A6
:105960001832934204D01A6822F004021A6003E04D
:105970001A6822F008021A60236C002BB2D020466D
:105980009847AFE70220884010EA0C0F60D012F071
:10599000020F5DD0786012F4004F0ED012F4803FF9
:1059A00005D1636C002B9DD0204698479AE7E36BA6
:1059B000002B97D02046984794E712F0200F40D153
:1059C00023683549354A934218BF8B422FD018328D
:1059D00093422CD01832934229D01832934226D0C9
:1059E0001832934223D01832934220D01832934277
:1059F0001DD002F55672934219D01832934216D038
:105A00001832934213D01832934210D01832934276
:105A10000DD0183293420AD01832934207D0183270
:105A2000934204D01A6822F00A021A6003E01A684E
:105A300022F014021A60012384F83530002384F820
:105A40003430E36B002B3FF44DAF2046984749E7D5
:105A5000082000FA01F111EA0C0F3FF443AF12F0F5
:105A6000080F3FF43FAF1A6822F00E021A60E36D90
:105A700003F01F03012202FA03F37B60626584F8DE
:105A80003520002384F83430E36C002B3FF42AAF38
:105A90002046984726E700BF100002402800024039
:105AA000406D7047F0B583B000236BE085685E0001
:105AB0000324B44025EA0405CC68B4402C43846038
:105AC000446824EA0C0C4C68C4F300149C4044EA7B
:105AD0000C04446068E0DD08083550F8256003F0E8
:105AE00007044FEA840C0F2404FA0CF426EA040E8F
:105AF0000C6904FA0CF444EA0E0440F825406BE00B
